{"abi":[{"type":"constructor","inputs":[],"stateMutability":"nonpayable"},{"type":"function","name":"addVerifier","inputs":[{"name":"verifier","type":"address","internalType":"address"}],"outputs":[],"stateMutability":"nonpayable"},{"type":"function","name":"agents","inputs":[{"name":"","type":"address","internalType":"address"}],"outputs":[{"name":"agentAddress","type":"address","internalType":"address"},{"name":"did","type":"string","internalType":"string"},{"name":"trustLevel","type":"uint8","internalType":"enum AgentRegistry.TrustLevel"},{"name":"registeredAt","type":"uint256","internalType":"uint256"},{"name":"lastVerifiedAt","type":"uint256","internalType":"uint256"},{"name":"isActive","type":"bool","internalType":"bool"}],"stateMutability":"view"},{"type":"function","name":"didToAddress","inputs":[{"name":"","type":"string","internalType":"string"}],"outputs":[{"name":"","type":"address","internalType":"address"}],"stateMutability":"view"},{"type":"function","name":"getAgentTrustLevel","inputs":[{"name":"agent","type":"address","internalType":"address"}],"outputs":[{"name":"","type":"uint8","internalType":"enum AgentRegistry.TrustLevel"}],"stateMutability":"view"},{"type":"function","name":"hasCapability","inputs":[{"name":"agent","type":"address","internalType":"address"},{"name":"capability","type":"bytes32","internalType":"bytes32"}],"outputs":[{"name":"","type":"bool","internalType":"bool"}],"stateMutability":"view"},{"type":"function","name":"owner","inputs":[],"outputs":[{"name":"","type":"address","internalType":"address"}],"stateMutability":"view"},{"type":"function","name":"pause","inputs":[],"outputs":[],"stateMutability":"nonpayable"},{"type":"function","name":"paused","inputs":[],"outputs":[{"name":"","type":"bool","internalType":"bool"}],"stateMutability":"view"},{"type":"function","name":"registerAgent","inputs":[{"name":"did","type":"string","internalType":"string"}],"outputs":[],"stateMutability":"nonpayable"},{"type":"function","name":"removeVerifier","inputs":[{"name":"verifier","type":"address","internalType":"address"}],"outputs":[],"stateMutability":"nonpayable"},{"type":"function","name":"renounceOwnership","inputs":[],"outputs":[],"stateMutability":"nonpayable"},{"type":"function","name":"revokeAgent","inputs":[{"name":"agent","type":"address","internalType":"address"},{"name":"reason","type":"string","internalType":"string"}],"outputs":[],"stateMutability":"nonpayable"},{"type":"function","name":"transferOwnership","inputs":[{"name":"newOwner","type":"address","internalType":"address"}],"outputs":[],"stateMutability":"nonpayable"},{"type":"function","name":"unpause","inputs":[],"outputs":[],"stateMutability":"nonpayable"},{"type":"function","name":"verifiers","inputs":[{"name":"","type":"address","internalType":"address"}],"outputs":[{"name":"","type":"bool","internalType":"bool"}],"stateMutability":"view"},{"type":"function","name":"verifyAgent","inputs":[{"name":"agent","type":"address","internalType":"address"},{"name":"newTrustLevel","type":"uint8","internalType":"enum AgentRegistry.TrustLevel"},{"name":"capabilities","type":"bytes32[]","internalType":"bytes32[]"}],"outputs":[],"stateMutability":"nonpayable"},{"type":"event","name":"AgentRegistered","inputs":[{"name":"agent","type":"address","indexed":true,"internalType":"address"},{"name":"did","type":"string","indexed":false,"internalType":"string"},{"name":"trustLevel","type":"uint8","indexed":false,"internalType":"enum AgentRegistry.TrustLevel"}],"anonymous":false},{"type":"event","name":"AgentRevoked","inputs":[{"name":"agent","type":"address","indexed":true,"internalType":"address"},{"name":"reason","type":"string","indexed":false,"internalType":"string"}],"anonymous":false},{"type":"event","name":"AgentVerified","inputs":[{"name":"agent","type":"address","indexed":true,"internalType":"address"},{"name":"newTrustLevel","type":"uint8","indexed":false,"internalType":"enum AgentRegistry.TrustLevel"}],"anonymous":false},{"type":"event","name":"CapabilityAdded","inputs":[{"name":"agent","type":"address","indexed":true,"internalType":"address"},{"name":"capability","type":"bytes32","indexed":false,"internalType":"bytes32"}],"anonymous":false},{"type":"event","name":"CapabilityRemoved","inputs":[{"name":"agent","type":"address","indexed":true,"internalType":"address"},{"name":"capability","type":"bytes32","indexed":false,"internalType":"bytes32"}],"anonymous":false},{"type":"event","name":"OwnershipTransferred","inputs":[{"name":"previousOwner","type":"address","indexed":true,"internalType":"address"},{"name":"newOwner","type":"address","indexed":true,"internalType":"address"}],"anonymous":false},{"type":"event","name":"Paused","inputs":[{"name":"account","type":"address","indexed":false,"internalType":"address"}],"anonymous":false},{"type":"event","name":"Unpaused","inputs":[{"name":"account","type":"address","indexed":false,"internalType":"address"}],"anonymous":false},{"type":"error","name":"EnforcedPause","inputs":[]},{"type":"error","name":"ExpectedPause","inputs":[]},{"type":"error","name":"OwnableInvalidOwner","inputs":[{"name":"owner","type":"address","internalType":"address"}]},{"type":"error","name":"OwnableUnauthorizedAccount","inputs":[{"name":"account","type":"address","internalType":"address"}]}],"bytecode":{"object":"0x608060405234801561000f575f5ffd5b50335f73ffffffffffffffffffffffffffffffffffffffff168173ffffffffffffffffffffffffffffffffffffffff1603610081575f6040517f1e4fbdf70000000000000000000000000000000000000000000000000000000081526004016100789190610196565b60405180910390fd5b6100908161009660201b60201c565b506101af565b5f5f5f9054906101000a900473ffffffffffffffffffffffffffffffffffffffff169050815f5f6101000a81548173ffffffffffffffffffffffffffffffffffffffff021916908373ffffffffffffffffffffffffffffffffffffffff1602179055508173ffffffffffffffffffffffffffffffffffffffff168173ffffffffffffffffffffffffffffffffffffffff167f8be0079c531659141344cd1fd0a4f28419497f9722a3daafe3b4186f6b6457e060405160405180910390a35050565b5f73ffffffffffffffffffffffffffffffffffffffff82169050919050565b5f61018082610157565b9050919050565b61019081610176565b82525050565b5f6020820190506101a95f830184610187565b92915050565b611f6f806101bc5f395ff3fe608060405234801561000f575f5ffd5b50600436106100fe575f3560e01c8063715018a611610095578063bf6af90c11610064578063bf6af90c14610270578063ca2dfd0a1461028c578063f2fde38b146102a8578063fd66091e146102c4576100fe565b8063715018a6146102225780638456cb591461022c5780638da5cb5b146102365780639000b3d614610254576100fe565b80635ecea824116100d15780635ecea824146101625780636b5dae34146101925780636ba1f4a4146101c25780636c824487146101f2576100fe565b806321251d91146101025780632d2a95851461011e5780633f4ba83a1461013a5780635c975abb14610144575b5f5ffd5b61011c600480360381019061011791906113c9565b6102f9565b005b61013860048036038101906101339190611572565b6106cc565b005b6101426109eb565b005b61014c6109fd565b60405161015991906115d3565b60405180910390f35b61017c6004803603810190610177919061161f565b610a12565b60405161018991906115d3565b60405180910390f35b6101ac60048036038101906101a7919061165d565b610acc565b6040516101b991906116fb565b60405180910390f35b6101dc60048036038101906101d79190611572565b610b21565b6040516101e99190611723565b60405180910390f35b61020c6004803603810190610207919061165d565b610b69565b60405161021991906115d3565b60405180910390f35b61022a610b86565b005b610234610b99565b005b61023e610bab565b60405161024b9190611723565b60405180910390f35b61026e6004803603810190610269919061165d565b610bd2565b005b61028a6004803603810190610285919061173c565b610c32565b005b6102a660048036038101906102a1919061165d565b610e6f565b005b6102c260048036038101906102bd919061165d565b610ece565b005b6102de60048036038101906102d9919061165d565b610f52565b6040516102f09695949392919061180e565b60405180910390f35b60035f3373ffffffffffffffffffffffffffffffffffffffff1673ffffffffffffffffffffffffffffffffffffffff1681526020019081526020015f205f9054906101000a900460ff16610382576040517f08c379a0000000000000000000000000000000000000000000000000000000008152600401610379906118be565b60405180910390fd5b61038a611047565b60015f8573ffffffffffffffffffffffffffffffffffffffff1673ffffffffffffffffffffffffffffffffffffffff1681526020019081526020015f206005015f9054906101000a900460ff16610416576040517f08c379a000000000000000000000000000000000000000000000000000000000815260040161040d90611926565b60405180910390fd5b60015f8573ffffffffffffffffffffffffffffffffffffffff1673ffffffffffffffffffffffffffffffffffffffff1681526020019081526020015f206002015f9054906101000a900460ff16600381111561047557610474611688565b5b83600381111561048857610487611688565b5b116104c8576040517f08c379a00000000000000000000000000000000000000000000000000000000081526004016104bf9061198e565b60405180910390fd5b8260015f8673ffffffffffffffffffffffffffffffffffffffff1673ffffffffffffffffffffffffffffffffffffffff1681526020019081526020015f206002015f6101000a81548160ff0219169083600381111561052a57610529611688565b5b02179055504260015f8673ffffffffffffffffffffffffffffffffffffffff1673ffffffffffffffffffffffffffffffffffffffff1681526020019081526020015f20600401819055505f5f90505b82829050811015610677576001805f8773ffffffffffffffffffffffffffffffffffffffff1673ffffffffffffffffffffffffffffffffffffffff1681526020019081526020015f206006015f8585858181106105d9576105d86119ac565b5b9050602002013581526020019081526020015f205f6101000a81548160ff0219169083151502179055508473ffffffffffffffffffffffffffffffffffffffff167f1eb5a0b9725a98314d6c9206c9e05bd837230cc22d009ff823d4ffb3cc94592084848481811061064e5761064d6119ac565b5b9050602002013560405161066291906119e8565b60405180910390a28080600101915050610579565b508373ffffffffffffffffffffffffffffffffffffffff167feb3401046ed50fde9f1632c720ef16f263c0fe66eb2fda955c333836806992d7846040516106be91906116fb565b60405180910390a250505050565b6106d4611047565b5f815111610717576040517f08c379a000000000000000000000000000000000000000000000000000000000815260040161070e90611a4b565b60405180910390fd5b5f73ffffffffffffffffffffffffffffffffffffffff1660028260405161073e9190611aa3565b90815260200160405180910390205f9054906101000a900473ffffffffffffffffffffffffffffffffffffffff1673ffffffffffffffffffffffffffffffffffffffff16146107c2576040517f08c379a00000000000000000000000000000000000000000000000000000000081526004016107b990611b03565b60405180910390fd5b60015f3373ffffffffffffffffffffffffffffffffffffffff1673ffffffffffffffffffffffffffffffffffffffff1681526020019081526020015f206005015f9054906101000a900460ff161561084f576040517f08c379a000000000000000000000000000000000000000000000000000000000815260040161084690611b6b565b60405180910390fd5b5f60015f3373ffffffffffffffffffffffffffffffffffffffff1673ffffffffffffffffffffffffffffffffffffffff1681526020019081526020015f20905033815f015f6101000a81548173ffffffffffffffffffffffffffffffffffffffff021916908373ffffffffffffffffffffffffffffffffffffffff160217905550818160010190816108e19190611d86565b505f816002015f6101000a81548160ff0219169083600381111561090857610907611688565b5b02179055504281600301819055504281600401819055506001816005015f6101000a81548160ff0219169083151502179055503360028360405161094c9190611aa3565b90815260200160405180910390205f6101000a81548173ffffffffffffffffffffffffffffffffffffffff021916908373ffffffffffffffffffffffffffffffffffffffff1602179055503373ffffffffffffffffffffffffffffffffffffffff167f043b4bd510c310dfeac11db30f86f7186f983ad895bfad174b5f2a770834b932835f6040516109df929190611e55565b60405180910390a25050565b6109f3611088565b6109fb61110f565b565b5f5f60149054906101000a900460ff16905090565b5f60015f8473ffffffffffffffffffffffffffffffffffffffff1673ffffffffffffffffffffffffffffffffffffffff1681526020019081526020015f206005015f9054906101000a900460ff168015610ac4575060015f8473ffffffffffffffffffffffffffffffffffffffff1673ffffffffffffffffffffffffffffffffffffffff1681526020019081526020015f206006015f8381526020019081526020015f205f9054906101000a900460ff165b905092915050565b5f60015f8373ffffffffffffffffffffffffffffffffffffffff1673ffffffffffffffffffffffffffffffffffffffff1681526020019081526020015f206002015f9054906101000a900460ff169050919050565b6002818051602081018201805184825260208301602085012081835280955050505050505f915054906101000a900473ffffffffffffffffffffffffffffffffffffffff1681565b6003602052805f5260405f205f915054906101000a900460ff1681565b610b8e611088565b610b975f611170565b565b610ba1611088565b610ba9611231565b565b5f5f5f9054906101000a900473ffffffffffffffffffffffffffffffffffffffff16905090565b610bda611088565b600160035f8373ffffffffffffffffffffffffffffffffffffffff1673ffffffffffffffffffffffffffffffffffffffff1681526020019081526020015f205f6101000a81548160ff02191690831515021790555050565b60035f3373ffffffffffffffffffffffffffffffffffffffff1673ffffffffffffffffffffffffffffffffffffffff1681526020019081526020015f205f9054906101000a900460ff16610cbb576040517f08c379a0000000000000000000000000000000000000000000000000000000008152600401610cb2906118be565b60405180910390fd5b60015f8373ffffffffffffffffffffffffffffffffffffffff1673ffffffffffffffffffffffffffffffffffffffff1681526020019081526020015f206005015f9054906101000a900460ff16610d47576040517f08c379a0000000000000000000000000000000000000000000000000000000008152600401610d3e90611926565b60405180910390fd5b5f60015f8473ffffffffffffffffffffffffffffffffffffffff1673ffffffffffffffffffffffffffffffffffffffff1681526020019081526020015f206005015f6101000a81548160ff021916908315150217905550600260015f8473ffffffffffffffffffffffffffffffffffffffff1673ffffffffffffffffffffffffffffffffffffffff1681526020019081526020015f20600101604051610ded9190611f03565b90815260200160405180910390205f6101000a81549073ffffffffffffffffffffffffffffffffffffffff02191690558173ffffffffffffffffffffffffffffffffffffffff167f403d7e1a9c42fe215347ba00d9d34b4bf8ef8ef3b5b723900c8ab9576e4b7b2c82604051610e639190611f19565b60405180910390a25050565b610e77611088565b5f60035f8373ffffffffffffffffffffffffffffffffffffffff1673ffffffffffffffffffffffffffffffffffffffff1681526020019081526020015f205f6101000a81548160ff02191690831515021790555050565b610ed6611088565b5f73ffffffffffffffffffffffffffffffffffffffff168173ffffffffffffffffffffffffffffffffffffffff1603610f46575f6040517f1e4fbdf7000000000000000000000000000000000000000000000000000000008152600401610f3d9190611723565b60405180910390fd5b610f4f81611170565b50565b6001602052805f5260405f205f91509050805f015f9054906101000a900473ffffffffffffffffffffffffffffffffffffffff1690806001018054610f9690611bb6565b80601f0160208091040260200160405190810160405280929190818152602001828054610fc290611bb6565b801561100d5780601f10610fe45761010080835404028352916020019161100d565b820191905f5260205f20905b815481529060010190602001808311610ff057829003601f168201915b505050505090806002015f9054906101000a900460ff1690806003015490806004015490806005015f9054906101000a900460ff16905086565b61104f6109fd565b15611086576040517fd93c066500000000000000000000000000000000000000000000000000000000815260040160405180910390fd5b565b611090611293565b73ffffffffffffffffffffffffffffffffffffffff166110ae610bab565b73ffffffffffffffffffffffffffffffffffffffff161461110d576110d1611293565b6040517f118cdaa70000000000000000000000000000000000000000000000000000000081526004016111049190611723565b60405180910390fd5b565b61111761129a565b5f5f60146101000a81548160ff0219169083151502179055507f5db9ee0a495bf2e6ff9c91a7834c1ba4fdd244a5e8aa4e537bd38aeae4b073aa611159611293565b6040516111669190611723565b60405180910390a1565b5f5f5f9054906101000a900473ffffffffffffffffffffffffffffffffffffffff169050815f5f6101000a81548173ffffffffffffffffffffffffffffffffffffffff021916908373ffffffffffffffffffffffffffffffffffffffff1602179055508173ffffffffffffffffffffffffffffffffffffffff168173ffffffffffffffffffffffffffffffffffffffff167f8be0079c531659141344cd1fd0a4f28419497f9722a3daafe3b4186f6b6457e060405160405180910390a35050565b611239611047565b60015f60146101000a81548160ff0219169083151502179055507f62e78cea01bee320cd4e420270b5ea74000d11b0c9f74754ebdbfc544b05a25861127c611293565b6040516112899190611723565b60405180910390a1565b5f33905090565b6112a26109fd565b6112d8576040517f8dfc202b00000000000000000000000000000000000000000000000000000000815260040160405180910390fd5b565b5f604051905090565b5f5ffd5b5f5ffd5b5f73ffffffffffffffffffffffffffffffffffffffff82169050919050565b5f611314826112eb565b9050919050565b6113248161130a565b811461132e575f5ffd5b50565b5f8135905061133f8161131b565b92915050565b60048110611351575f5ffd5b50565b5f8135905061136281611345565b92915050565b5f5ffd5b5f5ffd5b5f5ffd5b5f5f83601f84011261138957611388611368565b5b8235905067ffffffffffffffff8111156113a6576113a561136c565b5b6020830191508360208202830111156113c2576113c1611370565b5b9250929050565b5f5f5f5f606085870312156113e1576113e06112e3565b5b5f6113ee87828801611331565b94505060206113ff87828801611354565b935050604085013567ffffffffffffffff8111156114205761141f6112e7565b5b61142c87828801611374565b925092505092959194509250565b5f5ffd5b5f601f19601f8301169050919050565b7f4e487b71000000000000000000000000000000000000000000000000000000005f52604160045260245ffd5b6114848261143e565b810181811067ffffffffffffffff821117156114a3576114a261144e565b5b80604052505050565b5f6114b56112da565b90506114c1828261147b565b919050565b5f67ffffffffffffffff8211156114e0576114df61144e565b5b6114e98261143e565b9050602081019050919050565b828183375f83830152505050565b5f611516611511846114c6565b6114ac565b9050828152602081018484840111156115325761153161143a565b5b61153d8482856114f6565b509392505050565b5f82601f83011261155957611558611368565b5b8135611569848260208601611504565b91505092915050565b5f60208284031215611587576115866112e3565b5b5f82013567ffffffffffffffff8111156115a4576115a36112e7565b5b6115b084828501611545565b91505092915050565b5f8115159050919050565b6115cd816115b9565b82525050565b5f6020820190506115e65f8301846115c4565b92915050565b5f819050919050565b6115fe816115ec565b8114611608575f5ffd5b50565b5f81359050611619816115f5565b92915050565b5f5f60408385031215611635576116346112e3565b5b5f61164285828601611331565b92505060206116538582860161160b565b9150509250929050565b5f60208284031215611672576116716112e3565b5b5f61167f84828501611331565b91505092915050565b7f4e487b71000000000000000000000000000000000000000000000000000000005f52602160045260245ffd5b600481106116c6576116c5611688565b5b50565b5f8190506116d6826116b5565b919050565b5f6116e5826116c9565b9050919050565b6116f5816116db565b82525050565b5f60208201905061170e5f8301846116ec565b92915050565b61171d8161130a565b82525050565b5f6020820190506117365f830184611714565b92915050565b5f5f60408385031215611752576117516112e3565b5b5f61175f85828601611331565b925050602083013567ffffffffffffffff8111156117805761177f6112e7565b5b61178c85828601611545565b9150509250929050565b5f81519050919050565b5f82825260208201905092915050565b8281835e5f83830152505050565b5f6117c882611796565b6117d281856117a0565b93506117e28185602086016117b0565b6117eb8161143e565b840191505092915050565b5f819050919050565b611808816117f6565b82525050565b5f60c0820190506118215f830189611714565b818103602083015261183381886117be565b905061184260408301876116ec565b61184f60608301866117ff565b61185c60808301856117ff565b61186960a08301846115c4565b979650505050505050565b7f4e6f7420612076657269666965720000000000000000000000000000000000005f82015250565b5f6118a8600e836117a0565b91506118b382611874565b602082019050919050565b5f6020820190508181035f8301526118d58161189c565b9050919050565b7f4167656e74206e6f7420726567697374657265640000000000000000000000005f82015250565b5f6119106014836117a0565b915061191b826118dc565b602082019050919050565b5f6020820190508181035f83015261193d81611904565b9050919050565b7f496e76616c6964207472757374206c6576656c207570677261646500000000005f82015250565b5f611978601b836117a0565b915061198382611944565b602082019050919050565b5f6020820190508181035f8301526119a58161196c565b9050919050565b7f4e487b71000000000000000000000000000000000000000000000000000000005f52603260045260245ffd5b6119e2816115ec565b82525050565b5f6020820190506119fb5f8301846119d9565b92915050565b7f496e76616c6964204449440000000000000000000000000000000000000000005f82015250565b5f611a35600b836117a0565b9150611a4082611a01565b602082019050919050565b5f6020820190508181035f830152611a6281611a29565b9050919050565b5f81905092915050565b5f611a7d82611796565b611a878185611a69565b9350611a978185602086016117b0565b80840191505092915050565b5f611aae8284611a73565b915081905092915050565b7f44494420616c72656164792072656769737465726564000000000000000000005f82015250565b5f611aed6016836117a0565b9150611af882611ab9565b602082019050919050565b5f6020820190508181035f830152611b1a81611ae1565b9050919050565b7f4167656e7420616c7265616479207265676973746572656400000000000000005f82015250565b5f611b556018836117a0565b9150611b6082611b21565b602082019050919050565b5f6020820190508181035f830152611b8281611b49565b9050919050565b7f4e487b71000000000000000000000000000000000000000000000000000000005f52602260045260245ffd5b5f6002820490506001821680611bcd57607f821691505b602082108103611be057611bdf611b89565b5b50919050565b5f819050815f5260205f209050919050565b5f6020601f8301049050919050565b5f82821b905092915050565b5f60088302611c427fffffffffffffffffffffffffffffffffffffffffffffffffffffffffffffffff82611c07565b611c4c8683611c07565b95508019841693508086168417925050509392505050565b5f819050919050565b5f611c87611c82611c7d846117f6565b611c64565b6117f6565b9050919050565b5f819050919050565b611ca083611c6d565b611cb4611cac82611c8e565b848454611c13565b825550505050565b5f5f905090565b611ccb611cbc565b611cd6818484611c97565b505050565b5b81811015611cf957611cee5f82611cc3565b600181019050611cdc565b5050565b601f821115611d3e57611d0f81611be6565b611d1884611bf8565b81016020851015611d27578190505b611d3b611d3385611bf8565b830182611cdb565b50505b505050565b5f82821c905092915050565b5f611d5e5f1984600802611d43565b1980831691505092915050565b5f611d768383611d4f565b9150826002028217905092915050565b611d8f82611796565b67ffffffffffffffff811115611da857611da761144e565b5b611db28254611bb6565b611dbd828285611cfd565b5f60209050601f831160018114611dee575f8415611ddc578287015190505b611de68582611d6b565b865550611e4d565b601f198416611dfc86611be6565b5f5b82811015611e2357848901518255600182019150602085019450602081019050611dfe565b86831015611e405784890151611e3c601f891682611d4f565b8355505b6001600288020188555050505b505050505050565b5f6040820190508181035f830152611e6d81856117be565b9050611e7c60208301846116ec565b9392505050565b5f8154611e8f81611bb6565b611e998186611a69565b9450600182165f8114611eb35760018114611ec857611efa565b60ff1983168652811515820286019350611efa565b611ed185611be6565b5f5b83811015611ef257815481890152600182019150602081019050611ed3565b838801955050505b50505092915050565b5f611f0e8284611e83565b915081905092915050565b5f6020820190508181035f830152611f3181846117be565b90509291505056fea264697066735822122054bb8513adbae149de7e414078b69569731dce3eff9e8592a04e69bf639694fb64736f6c634300081e0033","linkReferences":{}},"methodIdentifiers":{"addVerifier(address)":"9000b3d6","agents(address)":"fd66091e","didToAddress(string)":"6ba1f4a4","getAgentTrustLevel(address)":"6b5dae34","hasCapability(address,bytes32)":"5ecea824","owner()":"8da5cb5b","pause()":"8456cb59","paused()":"5c975abb","registerAgent(string)":"2d2a9585","removeVerifier(address)":"ca2dfd0a","renounceOwnership()":"715018a6","revokeAgent(address,string)":"bf6af90c","transferOwnership(address)":"f2fde38b","unpause()":"3f4ba83a","verifiers(address)":"6c824487","verifyAgent(address,uint8,bytes32[])":"21251d91"},"id":23}