{"abi":[{"type":"constructor","inputs":[{"name":"_registry","type":"address","internalType":"address"}],"stateMutability":"nonpayable"},{"type":"function","name":"createDelegation","inputs":[{"name":"delegate","type":"address","internalType":"address"},{"name":"capabilities","type":"bytes32[]","internalType":"bytes32[]"},{"name":"validUntil","type":"uint256","internalType":"uint256"}],"outputs":[],"stateMutability":"nonpayable"},{"type":"function","name":"delegateList","inputs":[{"name":"","type":"address","internalType":"address"},{"name":"","type":"uint256","internalType":"uint256"}],"outputs":[{"name":"","type":"address","internalType":"address"}],"stateMutability":"view"},{"type":"function","name":"delegations","inputs":[{"name":"","type":"address","internalType":"address"},{"name":"","type":"address","internalType":"address"}],"outputs":[{"name":"delegator","type":"address","internalType":"address"},{"name":"delegate","type":"address","internalType":"address"},{"name":"validFrom","type":"uint256","internalType":"uint256"},{"name":"validUntil","type":"uint256","internalType":"uint256"},{"name":"isActive","type":"bool","internalType":"bool"}],"stateMutability":"view"},{"type":"function","name":"getDelegateList","inputs":[{"name":"delegator","type":"address","internalType":"address"}],"outputs":[{"name":"","type":"address[]","internalType":"address[]"}],"stateMutability":"view"},{"type":"function","name":"getDelegationDetails","inputs":[{"name":"delegator","type":"address","internalType":"address"},{"name":"delegate","type":"address","internalType":"address"}],"outputs":[{"name":"capabilities","type":"bytes32[]","internalType":"bytes32[]"},{"name":"validFrom","type":"uint256","internalType":"uint256"},{"name":"validUntil","type":"uint256","internalType":"uint256"},{"name":"isActive","type":"bool","internalType":"bool"}],"stateMutability":"view"},{"type":"function","name":"hasDelegatedCapability","inputs":[{"name":"delegator","type":"address","internalType":"address"},{"name":"delegate","type":"address","internalType":"address"},{"name":"capability","type":"bytes32","internalType":"bytes32"}],"outputs":[{"name":"","type":"bool","internalType":"bool"}],"stateMutability":"view"},{"type":"function","name":"owner","inputs":[],"outputs":[{"name":"","type":"address","internalType":"address"}],"stateMutability":"view"},{"type":"function","name":"pause","inputs":[],"outputs":[],"stateMutability":"nonpayable"},{"type":"function","name":"paused","inputs":[],"outputs":[{"name":"","type":"bool","internalType":"bool"}],"stateMutability":"view"},{"type":"function","name":"registry","inputs":[],"outputs":[{"name":"","type":"address","internalType":"contract AgentRegistry"}],"stateMutability":"view"},{"type":"function","name":"renounceOwnership","inputs":[],"outputs":[],"stateMutability":"nonpayable"},{"type":"function","name":"revokeDelegation","inputs":[{"name":"delegate","type":"address","internalType":"address"},{"name":"reason","type":"string","internalType":"string"}],"outputs":[],"stateMutability":"nonpayable"},{"type":"function","name":"setRegistry","inputs":[{"name":"_registry","type":"address","internalType":"address"}],"outputs":[],"stateMutability":"nonpayable"},{"type":"function","name":"transferOwnership","inputs":[{"name":"newOwner","type":"address","internalType":"address"}],"outputs":[],"stateMutability":"nonpayable"},{"type":"function","name":"unpause","inputs":[],"outputs":[],"stateMutability":"nonpayable"},{"type":"event","name":"DelegationCreated","inputs":[{"name":"delegator","type":"address","indexed":true,"internalType":"address"},{"name":"delegate","type":"address","indexed":true,"internalType":"address"},{"name":"capabilities","type":"bytes32[]","indexed":false,"internalType":"bytes32[]"},{"name":"validUntil","type":"uint256","indexed":false,"internalType":"uint256"}],"anonymous":false},{"type":"event","name":"DelegationExpired","inputs":[{"name":"delegator","type":"address","indexed":true,"internalType":"address"},{"name":"delegate","type":"address","indexed":true,"internalType":"address"}],"anonymous":false},{"type":"event","name":"DelegationRevoked","inputs":[{"name":"delegator","type":"address","indexed":true,"internalType":"address"},{"name":"delegate","type":"address","indexed":true,"internalType":"address"},{"name":"reason","type":"string","indexed":false,"internalType":"string"}],"anonymous":false},{"type":"event","name":"OwnershipTransferred","inputs":[{"name":"previousOwner","type":"address","indexed":true,"internalType":"address"},{"name":"newOwner","type":"address","indexed":true,"internalType":"address"}],"anonymous":false},{"type":"event","name":"Paused","inputs":[{"name":"account","type":"address","indexed":false,"internalType":"address"}],"anonymous":false},{"type":"event","name":"Unpaused","inputs":[{"name":"account","type":"address","indexed":false,"internalType":"address"}],"anonymous":false},{"type":"error","name":"EnforcedPause","inputs":[]},{"type":"error","name":"ExpectedPause","inputs":[]},{"type":"error","name":"OwnableInvalidOwner","inputs":[{"name":"owner","type":"address","internalType":"address"}]},{"type":"error","name":"OwnableUnauthorizedAccount","inputs":[{"name":"account","type":"address","internalType":"address"}]}],"bytecode":{"object":"0x608060405234801561000f575f5ffd5b506040516125b13803806125b183398181016040528101906100319190610217565b335f73ffffffffffffffffffffffffffffffffffffffff168173ffffffffffffffffffffffffffffffffffffffff16036100a2575f6040517f1e4fbdf70000000000000000000000000000000000000000000000000000000081526004016100999190610251565b60405180910390fd5b6100b1816100f860201b60201c565b508060015f6101000a81548173ffffffffffffffffffffffffffffffffffffffff021916908373ffffffffffffffffffffffffffffffffffffffff1602179055505061026a565b5f5f5f9054906101000a900473ffffffffffffffffffffffffffffffffffffffff169050815f5f6101000a81548173ffffffffffffffffffffffffffffffffffffffff021916908373ffffffffffffffffffffffffffffffffffffffff1602179055508173ffffffffffffffffffffffffffffffffffffffff168173ffffffffffffffffffffffffffffffffffffffff167f8be0079c531659141344cd1fd0a4f28419497f9722a3daafe3b4186f6b6457e060405160405180910390a35050565b5f5ffd5b5f73ffffffffffffffffffffffffffffffffffffffff82169050919050565b5f6101e6826101bd565b9050919050565b6101f6816101dc565b8114610200575f5ffd5b50565b5f81519050610211816101ed565b92915050565b5f6020828403121561022c5761022b6101b9565b5b5f61023984828501610203565b91505092915050565b61024b816101dc565b82525050565b5f6020820190506102645f830184610242565b92915050565b61233a806102775f395ff3fe608060405234801561000f575f5ffd5b50600436106100f3575f3560e01c80638da5cb5b11610095578063c64814dd11610064578063c64814dd14610223578063ed0a58b314610257578063f2fde38b14610287578063f6f24bb9146102a3576100f3565b80638da5cb5b1461019d578063969fecd4146101bb578063a91ee0dc146101eb578063b2b687e514610207576100f3565b8063715018a6116100d1578063715018a61461013b5780637b103999146101455780637e360d52146101635780638456cb5914610193576100f3565b80633f4ba83a146100f75780635c975abb14610101578063658e566a1461011f575b5f5ffd5b6100ff6102d6565b005b6101096102e8565b604051610116919061172e565b60405180910390f35b610139600480360381019061013491906118ee565b6102fd565b005b61014361079e565b005b61014d6107b1565b60405161015a91906119a3565b60405180910390f35b61017d600480360381019061017891906119ef565b6107d6565b60405161018a9190611a3c565b60405180910390f35b61019b61081e565b005b6101a5610830565b6040516101b29190611a3c565b60405180910390f35b6101d560048036038101906101d09190611a55565b610857565b6040516101e29190611b37565b60405180910390f35b61020560048036038101906102009190611a55565b61091f565b005b610221600480360381019061021c9190611bb4565b61096a565b005b61023d60048036038101906102389190611c25565b6110f9565b60405161024e959493929190611c72565b60405180910390f35b610271600480360381019061026c9190611cf6565b611180565b60405161027e919061172e565b60405180910390f35b6102a1600480360381019061029c9190611a55565b611296565b005b6102bd60048036038101906102b89190611c25565b61131a565b6040516102cd9493929190611dfd565b60405180910390f35b6102de61141b565b6102e66114a2565b565b5f5f60149054906101000a900460ff16905090565b60025f3373ffffffffffffffffffffffffffffffffffffffff1673ffffffffffffffffffffffffffffffffffffffff1681526020019081526020015f205f8373ffffffffffffffffffffffffffffffffffffffff1673ffffffffffffffffffffffffffffffffffffffff1681526020019081526020015f206005015f9054906101000a900460ff166103c4576040517f08c379a00000000000000000000000000000000000000000000000000000000081526004016103bb90611ea1565b60405180910390fd5b5f60025f3373ffffffffffffffffffffffffffffffffffffffff1673ffffffffffffffffffffffffffffffffffffffff1681526020019081526020015f205f8473ffffffffffffffffffffffffffffffffffffffff1673ffffffffffffffffffffffffffffffffffffffff1681526020019081526020015f206005015f6101000a81548160ff0219169083151502179055505f5f90505b60035f3373ffffffffffffffffffffffffffffffffffffffff1673ffffffffffffffffffffffffffffffffffffffff1681526020019081526020015f2080549050811015610734578273ffffffffffffffffffffffffffffffffffffffff1660035f3373ffffffffffffffffffffffffffffffffffffffff1673ffffffffffffffffffffffffffffffffffffffff1681526020019081526020015f20828154811061050957610508611ebf565b5b905f5260205f20015f9054906101000a900473ffffffffffffffffffffffffffffffffffffffff1673ffffffffffffffffffffffffffffffffffffffff16036107275760035f3373ffffffffffffffffffffffffffffffffffffffff1673ffffffffffffffffffffffffffffffffffffffff1681526020019081526020015f20600160035f3373ffffffffffffffffffffffffffffffffffffffff1673ffffffffffffffffffffffffffffffffffffffff1681526020019081526020015f20805490506105d69190611f19565b815481106105e7576105e6611ebf565b5b905f5260205f20015f9054906101000a900473ffffffffffffffffffffffffffffffffffffffff1660035f3373ffffffffffffffffffffffffffffffffffffffff1673ffffffffffffffffffffffffffffffffffffffff1681526020019081526020015f20828154811061065e5761065d611ebf565b5b905f5260205f20015f6101000a81548173ffffffffffffffffffffffffffffffffffffffff021916908373ffffffffffffffffffffffffffffffffffffffff16021790555060035f3373ffffffffffffffffffffffffffffffffffffffff1673ffffffffffffffffffffffffffffffffffffffff1681526020019081526020015f208054806106f0576106ef611f4c565b5b600190038181905f5260205f20015f6101000a81549073ffffffffffffffffffffffffffffffffffffffff02191690559055610734565b808060010191505061045b565b508173ffffffffffffffffffffffffffffffffffffffff163373ffffffffffffffffffffffffffffffffffffffff167f7b9de2ea25e2bcf2150702bf2d070e8245d542228ef81748a5c86603ec13c034836040516107929190611fc9565b60405180910390a35050565b6107a661141b565b6107af5f611503565b565b60015f9054906101000a900473ffffffffffffffffffffffffffffffffffffffff1681565b6003602052815f5260405f2081815481106107ef575f80fd5b905f5260205f20015f915091509054906101000a900473ffffffffffffffffffffffffffffffffffffffff1681565b61082661141b565b61082e6115c4565b565b5f5f5f9054906101000a900473ffffffffffffffffffffffffffffffffffffffff16905090565b606060035f8373ffffffffffffffffffffffffffffffffffffffff1673ffffffffffffffffffffffffffffffffffffffff1681526020019081526020015f2080548060200260200160405190810160405280929190818152602001828054801561091357602002820191905f5260205f20905b815f9054906101000a900473ffffffffffffffffffffffffffffffffffffffff1673ffffffffffffffffffffffffffffffffffffffff16815260200190600101908083116108ca575b50505050509050919050565b61092761141b565b8060015f6101000a81548173ffffffffffffffffffffffffffffffffffffffff021916908373ffffffffffffffffffffffffffffffffffffffff16021790555050565b5f600381111561097d5761097c611fe9565b5b60015f9054906101000a900473ffffffffffffffffffffffffffffffffffffffff1673ffffffffffffffffffffffffffffffffffffffff16636b5dae34336040518263ffffffff1660e01b81526004016109d79190611a3c565b602060405180830381865afa1580156109f2573d5f5f3e3d5ffd5b505050506040513d601f19601f82011682018060405250810190610a169190612039565b6003811115610a2857610a27611fe9565b5b03610a68576040517f08c379a0000000000000000000000000000000000000000000000000000000008152600401610a5f906120ae565b60405180910390fd5b610a70611626565b5f73ffffffffffffffffffffffffffffffffffffffff168473ffffffffffffffffffffffffffffffffffffffff1603610ade576040517f08c379a0000000000000000000000000000000000000000000000000000000008152600401610ad590612116565b60405180910390fd5b428111610b20576040517f08c379a0000000000000000000000000000000000000000000000000000000008152600401610b179061217e565b60405180910390fd5b5f6003811115610b3357610b32611fe9565b5b60015f9054906101000a900473ffffffffffffffffffffffffffffffffffffffff1673ffffffffffffffffffffffffffffffffffffffff16636b5dae34866040518263ffffffff1660e01b8152600401610b8d9190611a3c565b602060405180830381865afa158015610ba8573d5f5f3e3d5ffd5b505050506040513d601f19601f82011682018060405250810190610bcc9190612039565b6003811115610bde57610bdd611fe9565b5b03610c1e576040517f08c379a0000000000000000000000000000000000000000000000000000000008152600401610c15906121e6565b60405180910390fd5b60025f3373ffffffffffffffffffffffffffffffffffffffff1673ffffffffffffffffffffffffffffffffffffffff1681526020019081526020015f205f8573ffffffffffffffffffffffffffffffffffffffff1673ffffffffffffffffffffffffffffffffffffffff1681526020019081526020015f206005015f9054906101000a900460ff1615610ce6576040517f08c379a0000000000000000000000000000000000000000000000000000000008152600401610cdd9061224e565b60405180910390fd5b6040518060c001604052803373ffffffffffffffffffffffffffffffffffffffff1681526020018573ffffffffffffffffffffffffffffffffffffffff1681526020018484808060200260200160405190810160405280939291908181526020018383602002808284375f81840152601f19601f8201169050808301925050505050505081526020014281526020018281526020016001151581525060025f3373ffffffffffffffffffffffffffffffffffffffff1673ffffffffffffffffffffffffffffffffffffffff1681526020019081526020015f205f8673ffffffffffffffffffffffffffffffffffffffff1673ffffffffffffffffffffffffffffffffffffffff1681526020019081526020015f205f820151815f015f6101000a81548173ffffffffffffffffffffffffffffffffffffffff021916908373ffffffffffffffffffffffffffffffffffffffff1602179055506020820151816001015f6101000a81548173ffffffffffffffffffffffffffffffffffffffff021916908373ffffffffffffffffffffffffffffffffffffffff1602179055506040820151816002019080519060200190610ea09291906116ae565b50606082015181600301556080820151816004015560a0820151816005015f6101000a81548160ff0219169083151502179055509050505f5f90505f5f90505b60035f3373ffffffffffffffffffffffffffffffffffffffff1673ffffffffffffffffffffffffffffffffffffffff1681526020019081526020015f2080549050811015610fe7578573ffffffffffffffffffffffffffffffffffffffff1660035f3373ffffffffffffffffffffffffffffffffffffffff1673ffffffffffffffffffffffffffffffffffffffff1681526020019081526020015f208281548110610f8e57610f8d611ebf565b5b905f5260205f20015f9054906101000a900473ffffffffffffffffffffffffffffffffffffffff1673ffffffffffffffffffffffffffffffffffffffff1603610fda5760019150610fe7565b8080600101915050610ee0565b50806110895760035f3373ffffffffffffffffffffffffffffffffffffffff1673ffffffffffffffffffffffffffffffffffffffff1681526020019081526020015f2085908060018154018082558091505060019003905f5260205f20015f9091909190916101000a81548173ffffffffffffffffffffffffffffffffffffffff021916908373ffffffffffffffffffffffffffffffffffffffff1602179055505b8473ffffffffffffffffffffffffffffffffffffffff163373ffffffffffffffffffffffffffffffffffffffff167ff6daba9a137fa5026dbda1ca430e44b5968c8b6f4e6050e2de1695d54d8ccc748686866040516110ea939291906122d4565b60405180910390a35050505050565b6002602052815f5260405f20602052805f5260405f205f9150915050805f015f9054906101000a900473ffffffffffffffffffffffffffffffffffffffff1690806001015f9054906101000a900473ffffffffffffffffffffffffffffffffffffffff1690806003015490806004015490806005015f9054906101000a900460ff16905085565b5f5f60025f8673ffffffffffffffffffffffffffffffffffffffff1673ffffffffffffffffffffffffffffffffffffffff1681526020019081526020015f205f8573ffffffffffffffffffffffffffffffffffffffff1673ffffffffffffffffffffffffffffffffffffffff1681526020019081526020015f209050806005015f9054906101000a900460ff16158061121c5750806003015442105b8061122a5750806004015442115b15611238575f91505061128f565b5f5f90505b8160020180549050811015611289578382600201828154811061126357611262611ebf565b5b905f5260205f2001540361127c5760019250505061128f565b808060010191505061123d565b505f9150505b9392505050565b61129e61141b565b5f73ffffffffffffffffffffffffffffffffffffffff168173ffffffffffffffffffffffffffffffffffffffff160361130e575f6040517f1e4fbdf70000000000000000000000000000000000000000000000000000000081526004016113059190611a3c565b60405180910390fd5b61131781611503565b50565b60605f5f5f5f60025f8873ffffffffffffffffffffffffffffffffffffffff1673ffffffffffffffffffffffffffffffffffffffff1681526020019081526020015f205f8773ffffffffffffffffffffffffffffffffffffffff1673ffffffffffffffffffffffffffffffffffffffff1681526020019081526020015f2090508060020181600301548260040154836005015f9054906101000a900460ff168380548060200260200160405190810160405280929190818152602001828054801561140257602002820191905f5260205f20905b8154815260200190600101908083116113ee575b5050505050935094509450945094505092959194509250565b611423611667565b73ffffffffffffffffffffffffffffffffffffffff16611441610830565b73ffffffffffffffffffffffffffffffffffffffff16146114a057611464611667565b6040517f118cdaa70000000000000000000000000000000000000000000000000000000081526004016114979190611a3c565b60405180910390fd5b565b6114aa61166e565b5f5f60146101000a81548160ff0219169083151502179055507f5db9ee0a495bf2e6ff9c91a7834c1ba4fdd244a5e8aa4e537bd38aeae4b073aa6114ec611667565b6040516114f99190611a3c565b60405180910390a1565b5f5f5f9054906101000a900473ffffffffffffffffffffffffffffffffffffffff169050815f5f6101000a81548173ffffffffffffffffffffffffffffffffffffffff021916908373ffffffffffffffffffffffffffffffffffffffff1602179055508173ffffffffffffffffffffffffffffffffffffffff168173ffffffffffffffffffffffffffffffffffffffff167f8be0079c531659141344cd1fd0a4f28419497f9722a3daafe3b4186f6b6457e060405160405180910390a35050565b6115cc611626565b60015f60146101000a81548160ff0219169083151502179055507f62e78cea01bee320cd4e420270b5ea74000d11b0c9f74754ebdbfc544b05a25861160f611667565b60405161161c9190611a3c565b60405180910390a1565b61162e6102e8565b15611665576040517fd93c066500000000000000000000000000000000000000000000000000000000815260040160405180910390fd5b565b5f33905090565b6116766102e8565b6116ac576040517f8dfc202b00000000000000000000000000000000000000000000000000000000815260040160405180910390fd5b565b828054828255905f5260205f209081019282156116e8579160200282015b828111156116e75782518255916020019190600101906116cc565b5b5090506116f591906116f9565b5090565b5b80821115611710575f815f9055506001016116fa565b5090565b5f8115159050919050565b61172881611714565b82525050565b5f6020820190506117415f83018461171f565b92915050565b5f604051905090565b5f5ffd5b5f5ffd5b5f73ffffffffffffffffffffffffffffffffffffffff82169050919050565b5f61178182611758565b9050919050565b61179181611777565b811461179b575f5ffd5b50565b5f813590506117ac81611788565b92915050565b5f5ffd5b5f5ffd5b5f601f19601f8301169050919050565b7f4e487b71000000000000000000000000000000000000000000000000000000005f52604160045260245ffd5b611800826117ba565b810181811067ffffffffffffffff8211171561181f5761181e6117ca565b5b80604052505050565b5f611831611747565b905061183d82826117f7565b919050565b5f67ffffffffffffffff82111561185c5761185b6117ca565b5b611865826117ba565b9050602081019050919050565b828183375f83830152505050565b5f61189261188d84611842565b611828565b9050828152602081018484840111156118ae576118ad6117b6565b5b6118b9848285611872565b509392505050565b5f82601f8301126118d5576118d46117b2565b5b81356118e5848260208601611880565b91505092915050565b5f5f6040838503121561190457611903611750565b5b5f6119118582860161179e565b925050602083013567ffffffffffffffff81111561193257611931611754565b5b61193e858286016118c1565b9150509250929050565b5f819050919050565b5f61196b61196661196184611758565b611948565b611758565b9050919050565b5f61197c82611951565b9050919050565b5f61198d82611972565b9050919050565b61199d81611983565b82525050565b5f6020820190506119b65f830184611994565b92915050565b5f819050919050565b6119ce816119bc565b81146119d8575f5ffd5b50565b5f813590506119e9816119c5565b92915050565b5f5f60408385031215611a0557611a04611750565b5b5f611a128582860161179e565b9250506020611a23858286016119db565b9150509250929050565b611a3681611777565b82525050565b5f602082019050611a4f5f830184611a2d565b92915050565b5f60208284031215611a6a57611a69611750565b5b5f611a778482850161179e565b91505092915050565b5f81519050919050565b5f82825260208201905092915050565b5f819050602082019050919050565b611ab281611777565b82525050565b5f611ac38383611aa9565b60208301905092915050565b5f602082019050919050565b5f611ae582611a80565b611aef8185611a8a565b9350611afa83611a9a565b805f5b83811015611b2a578151611b118882611ab8565b9750611b1c83611acf565b925050600181019050611afd565b5085935050505092915050565b5f6020820190508181035f830152611b4f8184611adb565b905092915050565b5f5ffd5b5f5ffd5b5f5f83601f840112611b7457611b736117b2565b5b8235905067ffffffffffffffff811115611b9157611b90611b57565b5b602083019150836020820283011115611bad57611bac611b5b565b5b9250929050565b5f5f5f5f60608587031215611bcc57611bcb611750565b5b5f611bd98782880161179e565b945050602085013567ffffffffffffffff811115611bfa57611bf9611754565b5b611c0687828801611b5f565b93509350506040611c19878288016119db565b91505092959194509250565b5f5f60408385031215611c3b57611c3a611750565b5b5f611c488582860161179e565b9250506020611c598582860161179e565b9150509250929050565b611c6c816119bc565b82525050565b5f60a082019050611c855f830188611a2d565b611c926020830187611a2d565b611c9f6040830186611c63565b611cac6060830185611c63565b611cb9608083018461171f565b9695505050505050565b5f819050919050565b611cd581611cc3565b8114611cdf575f5ffd5b50565b5f81359050611cf081611ccc565b92915050565b5f5f5f60608486031215611d0d57611d0c611750565b5b5f611d1a8682870161179e565b9350506020611d2b8682870161179e565b9250506040611d3c86828701611ce2565b9150509250925092565b5f81519050919050565b5f82825260208201905092915050565b5f819050602082019050919050565b611d7881611cc3565b82525050565b5f611d898383611d6f565b60208301905092915050565b5f602082019050919050565b5f611dab82611d46565b611db58185611d50565b9350611dc083611d60565b805f5b83811015611df0578151611dd78882611d7e565b9750611de283611d95565b925050600181019050611dc3565b5085935050505092915050565b5f6080820190508181035f830152611e158187611da1565b9050611e246020830186611c63565b611e316040830185611c63565b611e3e606083018461171f565b95945050505050565b5f82825260208201905092915050565b7f4e6f206163746976652064656c65676174696f6e0000000000000000000000005f82015250565b5f611e8b601483611e47565b9150611e9682611e57565b602082019050919050565b5f6020820190508181035f830152611eb881611e7f565b9050919050565b7f4e487b71000000000000000000000000000000000000000000000000000000005f52603260045260245ffd5b7f4e487b71000000000000000000000000000000000000000000000000000000005f52601160045260245ffd5b5f611f23826119bc565b9150611f2e836119bc565b9250828203905081811115611f4657611f45611eec565b5b92915050565b7f4e487b71000000000000000000000000000000000000000000000000000000005f52603160045260245ffd5b5f81519050919050565b8281835e5f83830152505050565b5f611f9b82611f79565b611fa58185611e47565b9350611fb5818560208601611f83565b611fbe816117ba565b840191505092915050565b5f6020820190508181035f830152611fe18184611f91565b905092915050565b7f4e487b71000000000000000000000000000000000000000000000000000000005f52602160045260245ffd5b60048110612022575f5ffd5b50565b5f8151905061203381612016565b92915050565b5f6020828403121561204e5761204d611750565b5b5f61205b84828501612025565b91505092915050565b7f4e6f7420612072656769737465726564206167656e74000000000000000000005f82015250565b5f612098601683611e47565b91506120a382612064565b602082019050919050565b5f6020820190508181035f8301526120c58161208c565b9050919050565b7f496e76616c69642064656c6567617465000000000000000000000000000000005f82015250565b5f612100601083611e47565b915061210b826120cc565b602082019050919050565b5f6020820190508181035f83015261212d816120f4565b9050919050565b7f496e76616c69642076616c696469747920706572696f640000000000000000005f82015250565b5f612168601783611e47565b915061217382612134565b602082019050919050565b5f6020820190508181035f8301526121958161215c565b9050919050565b7f44656c6567617465206e6f7420726567697374657265640000000000000000005f82015250565b5f6121d0601783611e47565b91506121db8261219c565b602082019050919050565b5f6020820190508181035f8301526121fd816121c4565b9050919050565b7f44656c65676174696f6e20616c726561647920657869737473000000000000005f82015250565b5f612238601983611e47565b915061224382612204565b602082019050919050565b5f6020820190508181035f8301526122658161222c565b9050919050565b5f5ffd5b82818337505050565b5f6122848385611d50565b93507f07ffffffffffffffffffffffffffffffffffffffffffffffffffffffffffffff8311156122b7576122b661226c565b5b6020830292506122c8838584612270565b82840190509392505050565b5f6040820190508181035f8301526122ed818587612279565b90506122fc6020830184611c63565b94935050505056fea26469706673582212205e174bb0640cb5f9ed28952443ec1e6ab251b4123bab9a76127ccf06b5b69ffc64736f6c634300081e0033","linkReferences":{}},"methodIdentifiers":{"createDelegation(address,bytes32[],uint256)":"b2b687e5","delegateList(address,uint256)":"7e360d52","delegations(address,address)":"c64814dd","getDelegateList(address)":"969fecd4","getDelegationDetails(address,address)":"f6f24bb9","hasDelegatedCapability(address,address,bytes32)":"ed0a58b3","owner()":"8da5cb5b","pause()":"8456cb59","paused()":"5c975abb","registry()":"7b103999","renounceOwnership()":"715018a6","revokeDelegation(address,string)":"658e566a","setRegistry(address)":"a91ee0dc","transferOwnership(address)":"f2fde38b","unpause()":"3f4ba83a"},"id":22}